{
  "_format": "hh-sol-artifact-1",
  "contractName": "Bank",
  "sourceName": "blockchain/contracts/bank.sol",
  "abi": [
    {
      "inputs": [],
      "stateMutability": "nonpayable",
      "type": "constructor"
    },
    {
      "inputs": [
        {
          "internalType": "address",
          "name": "",
          "type": "address"
        }
      ],
      "name": "accounts",
      "outputs": [
        {
          "internalType": "uint256",
          "name": "",
          "type": "uint256"
        }
      ],
      "stateMutability": "view",
      "type": "function"
    },
    {
      "inputs": [],
      "name": "deposit",
      "outputs": [],
      "stateMutability": "payable",
      "type": "function"
    },
    {
      "inputs": [],
      "name": "totalAsserts",
      "outputs": [
        {
          "internalType": "uint256",
          "name": "",
          "type": "uint256"
        }
      ],
      "stateMutability": "view",
      "type": "function"
    },
    {
      "inputs": [
        {
          "internalType": "uint256",
          "name": "_amount",
          "type": "uint256"
        },
        {
          "internalType": "address",
          "name": "_tokenContract",
          "type": "address"
        }
      ],
      "name": "withdraw",
      "outputs": [],
      "stateMutability": "nonpayable",
      "type": "function"
    }
  ],
  "bytecode": "0x608060405234801561001057600080fd5b506106df806100206000396000f3fe60806040526004361061003e5760003560e01c8062f714ce146100435780635e5c06e21461006c578063d0e30db0146100a9578063e5c65d30146100b3575b600080fd5b34801561004f57600080fd5b5061006a600480360381019061006591906103cd565b6100de565b005b34801561007857600080fd5b50610093600480360381019061008e919061040d565b61027a565b6040516100a09190610449565b60405180910390f35b6100b1610292565b005b3480156100bf57600080fd5b506100c861032c565b6040516100d59190610449565b60405180910390f35b6000803373ffffffffffffffffffffffffffffffffffffffff1673ffffffffffffffffffffffffffffffffffffffff1681526020019081526020016000205482111561015f576040517f08c379a0000000000000000000000000000000000000000000000000000000008152600401610156906104e7565b60405180910390fd5b816000803373ffffffffffffffffffffffffffffffffffffffff1673ffffffffffffffffffffffffffffffffffffffff16815260200190815260200160002060008282546101ad9190610536565b925050819055503373ffffffffffffffffffffffffffffffffffffffff166108fc839081150290604051600060405180830381858888f193505050501580156101fa573d6000803e3d6000fd5b5060008190508073ffffffffffffffffffffffffffffffffffffffff166340c10f1933670de0b6b3a76400006040518363ffffffff1660e01b81526004016102439291906105be565b600060405180830381600087803b15801561025d57600080fd5b505af1158015610271573d6000803e3d6000fd5b50505050505050565b60006020528060005260406000206000915090505481565b600034116102d5576040517f08c379a00000000000000000000000000000000000000000000000000000000081526004016102cc90610633565b60405180910390fd5b346000803373ffffffffffffffffffffffffffffffffffffffff1673ffffffffffffffffffffffffffffffffffffffff16815260200190815260200160002060008282546103239190610653565b92505081905550565b600047905090565b600080fd5b6000819050919050565b61034c81610339565b811461035757600080fd5b50565b60008135905061036981610343565b92915050565b600073ffffffffffffffffffffffffffffffffffffffff82169050919050565b600061039a8261036f565b9050919050565b6103aa8161038f565b81146103b557600080fd5b50565b6000813590506103c7816103a1565b92915050565b600080604083850312156103e4576103e3610334565b5b60006103f28582860161035a565b9250506020610403858286016103b8565b9150509250929050565b60006020828403121561042357610422610334565b5b6000610431848285016103b8565b91505092915050565b61044381610339565b82525050565b600060208201905061045e600083018461043a565b92915050565b600082825260208201905092915050565b7f43616e6e6f74207769746864726177206d6f72652074686174206465706f736960008201527f7465642e00000000000000000000000000000000000000000000000000000000602082015250565b60006104d1602483610464565b91506104dc82610475565b604082019050919050565b60006020820190508181036000830152610500816104c4565b9050919050565b7f4e487b7100000000000000000000000000000000000000000000000000000000600052601160045260246000fd5b600061054182610339565b915061054c83610339565b92508282101561055f5761055e610507565b5b828203905092915050565b6105738161038f565b82525050565b6000819050919050565b6000819050919050565b60006105a86105a361059e84610579565b610583565b610339565b9050919050565b6105b88161058d565b82525050565b60006040820190506105d3600083018561056a565b6105e060208301846105af565b9392505050565b7f4d757374206465706f736974206d6f7265207468616e2030204d415449432e00600082015250565b600061061d601f83610464565b9150610628826105e7565b602082019050919050565b6000602082019050818103600083015261064c81610610565b9050919050565b600061065e82610339565b915061066983610339565b9250827fffffffffffffffffffffffffffffffffffffffffffffffffffffffffffffffff0382111561069e5761069d610507565b5b82820190509291505056fea2646970667358221220a351d783b1c4f47d473b42bb5cf14021cbe9078b2beac4acde23bce57173ebb364736f6c634300080f0033",
  "linkReferences": {},
  "deployedLinkReferences": {}
}